:020000040800F2
:10000000700600204D020008550200085702000843
:10001000590200085B0200085D02000800000000B1
:100020000000000000000000000000005F02000867
:100030006102000800000000630200086502000879
:1000400067020008670200086702000867020008EC
:1000500067020008670200086702000867020008DC
:1000600067020008670200086702000867020008CC
:1000700067020008670200086702000867020008BC
:1000800067020008670200086702000867020008AC
:10009000670200086702000867020008670200089C
:1000A000670200086702000867020008670200088C
:1000B0006702000867020008AD0500086702000833
:1000C000670200086702000867020008670200086C
:1000D000670200086702000867020008670200085C
:1000E00009030008670200086702000867020008A9
:1000F000670200086702000867020008670200083C
:10010000670200086702000867020008670200082B
:10011000670200086702000867020008670200081B
:10012000670200086702000867020008670200080B
:1001300067020008670200086702000867020008FB
:1001400067020008670200086702000867020008EB
:1001500067020008670200086702000867020008DB
:1001600067020008670200086702000867020008CB
:10017000670200086702000867020008000000002C
:1001800067020008670200086702000867020008AB
:10019000670200086702000867020008670200089B
:1001A00067020008670200086702000800F002F812
:1001B00000F03CF80AA090E8000C82448344AAF1C5
:1001C0000107DA4501D100F031F8AFF2090EBAE8C3
:1001D0000F0013F0010F18BFFB1A43F0010318477B
:1001E0005005000070050000103A24BF78C878C19F
:1001F000FAD8520724BF30C830C144BF04680C602D
:10020000704700000023002400250026103A28BF74
:1002100078C1FBD8520728BF30C148BF0B60704778
:100220001FB500F06FFA1FBD10B510BD00F031F81A
:100230001146FFF7F5FF00F05BFA00F04FF803B44A
:10024000FFF7F2FF03BC00F057F8000009488047B1
:1002500009480047FEE7FEE7FEE7FEE7FEE7FEE7A8
:10026000FEE7FEE7FEE7FEE704480549054A064BC0
:100270007047000039050008AD010008700000203B
:100280007006002070020020700200207047704746
:100290007047754600F02CF8AE4605006946534697
:1002A00020F00700854618B020B5FFF7DDFFBDE858
:1002B00020404FF000064FF000074FF000084FF0CD
:1002C000000BAC46ACE8C009ACE8C009ACE8C0091A
:1002D000ACE8C00921F007018D46704710B504460F
:1002E000AFF300802046BDE81040FFF7A8BF000034
:1002F000004870470800002001491820ABBEFEE707
:10030000260002007047000080B544F6206000F02F
:100310003FF940F26800C2F20000017800291CBFDA
:100320000021017043F61440C4F20100016841F459
:100330000051016080BD000080B543F6400CC4F25E
:10034000020CDCF8003040F20C0E43F00103CCF854
:100350000030C4F2000EDEF800C001384CF001039A
:10036000CEF80030DEF81C3040EA0300CEF81C0066
:10037000A1F10100CEF820004FF00000CEF81800E7
:100380003AB14EF20010CEF20000016841F0805107
:1003900001604FF08040016841F00101016080BDC3
:1003A00010B543F6400CC4F2020CDCF800E040F259
:1003B00000444EF00203C4F20004CCF80030E368BD
:1003C000013843F00103E360A062481EE0620020B0
:1003D00060623AB14EF20010CEF20000016841F0C6
:1003E00000510160206840F00100206010BD000055
:1003F00010B543F6400CC4F2020CDCF800E040F605
:1004000000044EF00403C4F20004CCF80030E368AA
:10041000013843F00103E360A062481EE06200205F
:1004200060623AB14EF20010CEF20000016841F075
:1004300080410160206840F00100206010BD000094
:1004400043F60800C4F20200816B41F080518163E1
:1004500047F20001C4F200010A6842F440420A6017
:1004600001680160016841F420410160016841F4C4
:10047000A051016042F60851C0F2007140F8041C1E
:1004800050F8081C41F0807140F8081C50F8081C16
:100490008901FBD540F20561C0F8F813016821F02D
:1004A00003010160016841F002010160016801F08F
:1004B0000C010829FAD1704743F60400C4F2020087
:1004C000416801F00C0242F20041082AC0F2F40136
:1004D00006D0042A1DD147F64001C0F27D1118E074
:1004E00002680368520247F64002C0F27D1203F030
:1004F0003F0358BF0A460168B2FBF3F20368C1F339
:1005000088115143C3F30142022303EB4202B1FBC2
:10051000F2F140F20002C2F200021160406840F2C3
:100520001E71C0F30310C0F60001085C116821FAC7
:1005300000F01060704700004EF68850CEF20000C8
:1005400001684FF0000C41F47001016043F60001B6
:10055000C4F202010A6842F001020A60C1F808C050
:100560000B684FF6FF72CFF6F6621A400A6043F24C
:100570001002C2F200424A600A6822F480220A6035
:10058000C1F80CC04FF0006140F8801C70470000BB
:1005900040F22441C4F200010A680128B8BF704744
:1005A0000B689B1A9BB28342FADB704740F610003F
:1005B000C4F20000016821F00101016040F2144022
:1005C000C4F20200016881F48041016070470000BC
:1005D0004EF20410CEF200004FF4807101607047BB
:1005E0004EF22840CEF2000000210170704700005A
:1005F00040F26800C2F2000000780121002840F2B9
:100600001840C4F2020008BF4FF480310160704707
:1006100043F63000C4F20200016843F6FC7241F078
:100620000201016040F20040C4F202000168CCF611
:10063000FF7211400160016844F20102C1F2000240
:10064000114301607047000080B543F63000C4F2EA
:100650000200016841F004010160416941F48041F8
:10066000416140F60000C4F20200016821F04061DF
:10067000016043F61400C4F20100016821F0F001AA
:100680000160016841F020010160D0F8EC1341F4F1
:100690000051C0F8EC13D0F8F41341F40051C0F845
:1006A000F413FFF79DFFFFF793FF80BD10B572B6FF
:1006B000FFF7AEFFFFF7C8FF4AF6C8704FF0FF31F3
:1006C00000220024FFF738FE5C204FF6FF71002265
:1006D000FFF766FE42F2FC3040F2D2710122FFF7D2
:1006E00087FE40F2680062B6C2F20000046010BDEE
:1006F000FFF7A6FEFFF7E0FEFFF7D8FFFFF778FF52
:1007000000BFFBE7F1EE100A4FF6FF71C0F2C031F7
:1007100020EA010040F04070E1EE100A704700004E
:1007200000000000000001020304060708090000A1
:10073000500700080000002004000000E801000845
:1007400054070008080000206806000004020008A2
:040750000024F4008D
:040000050800024DA0
:00000001FF
